:0400000020EF08F0F5
:10080000003132332B3435362D3738392A3D3043D9
:100810002F2D4D617468204572726F72002D2D006E
:0108200000D7
:10082200E00E8A6E35EF04F0010EF66E080EF76EDA
:100832000800F55018EF05F0020EF66E080EF76E7E
:100842000800F55018EF05F0030EF66E080EF76E6D
:100852000800F55018EF05F0040EF66E080EF76E5C
:100862000800F55018EF05F08150016E026A02503F
:10087200000AD8B43FEF04F052EF04F00150E70A47
:10088200D8B42DEF04F00C0AD8B425EF04F0060A10
:10089200D8B41DEF04F0030AD8B415EF04F052EFF8
:1008A20004F0D00E8A6E76EF04F0050EF66E080E96
:1008B200F76E0800F55018EF05F0060EF66E080EFA
:1008C200F76E0800F55018EF05F0070EF66E080EE9
:1008D200F76E0800F55018EF05F0080EF66E080ED8
:1008E200F76E0800F55018EF05F08150016E026AAC
:1008F2000250000AD8B480EF04F093EF04F00150E4
:10090200D70AD8B46EEF04F00C0AD8B466EF04F03C
:10091200060AD8B45EEF04F0030AD8B456EF04F026
:1009220093EF04F0B00E8A6EB7EF04F0090EF66E84
:10093200080EF76E0800F55018EF05F00A0EF66E75
:10094200080EF76E0800F55018EF05F00B0EF66E64
:10095200080EF76E0800F55018EF05F00C0EF66E53
:10096200080EF76E0800F55018EF05F08150016E81
:10097200026A0250000AD8B4C1EF04F0D4EF04F0C6
:100982000150B70AD8B4AFEF04F00C0AD8B4A7EFFD
:1009920004F0060AD8B49FEF04F0030AD8B497EF24
:1009A20004F0D4EF04F0700E8A6EF8EF04F00D0E2E
:1009B200F66E080EF76E0800F55018EF05F00E0EF1
:1009C200F66E080EF76E0800F55018EF05F00F0EE0
:1009D200F66E080EF76E0800F55018EF05F0100ECF
:1009E200F66E080EF76E0800F55018EF05F081500C
:1009F200016E026A0250000AD8B402EF05F015EF48
:100A020005F00150770AD8B4F0EF04F00C0AD8B41C
:100A1200E8EF04F0060AD8B4E0EF04F0030AD8B411
:100A2200D8EF04F015EF05F0000E8A6E780E120072
:100A3200740ED36E56EC07F035EC08F0BFEC07F0FD
:100A42001A6E1A50F8EC07F01A50F3EC05F00AC0CF
:100A520017F00BC018F00D0E17181810D8B434EF99
:100A620005F036EF05F01FEF05F0BFEC07F01A6E48
:100A72001A50F8EC07F01A50E3EC06F0196E650E06
:100A82001918D8B447EF05F049EF05F01FEF05F04C
:100A9200BFEC07F01A6E1A50F8EC07F01A50F3EC9C
:100AA20005F00AC015F00BC016F00D0E1518161041
:100AB200D8B45EEF05F060EF05F01FEF05F0BFEC74
:100AC20007F01A6E1A50F8EC07F03D0E1A18D8A467
:100AD2006DEF05F06FEF05F0D9EF05F0000E2BEC8E
:100AE20008F0BCEF05F015501724096E16501820B7
:100AF2000A6E21EC07F0020E2BEC08F01FEF05F056
:100B02001550175C096E165018580A6E21EC07F042
:100B1200020E2BEC08F01FEF05F017C001F018C011
:100B220002F015C003F016C004F00DEC08F001C08D
:100B320009F002C00AF021EC07F0020E2BEC08F0DB
:100B42001FEF05F017C001F018C002F015C003F046
:100B520016C004F081EC06F001C013F002C014F0DC
:100B620013C009F014C00AF021EC07F0020E2BECBE
:100B720008F01FEF05F01950116E126A1250000AA8
:100B8200D8B4C6EF05F0EFEF05F011502A0AD8B439
:100B92008EEF05F0010AD8B474EF05F0060AD8B456
:100BA20081EF05F0020AD8B4A3EF05F0EFEF05F0EC
:100BB200430E1A18D8A4E0EF05F0E2EF05F0E7EFD4
:100BC20005F0010E2BEC08F01FEF05F0000E076E8A
:100BD200000E066E8BEC07F01FEF05F01FEF05F01D
:100BE20000EF00F00E6E43EF06F0000E106E000EE6
:100BF2000F6E7CEF06F0000E106E010E0F6E7CEF92
:100C020006F0000E106E020E0F6E7CEF06F0000E64
:100C1200106E030E0F6E7CEF06F0000E106E040EC7
:100C22000F6E7CEF06F0000E106E050E0F6E7CEF5D
:100C320006F0000E106E060E0F6E7CEF06F0000E30
:100C4200106E070E0F6E7CEF06F0000E106E080E8F
:100C52000F6E7CEF06F0000E106E090E0F6E7CEF29
:100C620006F0010E2BEC08F0000E106E0D0E0F6E4A
:100C72007CEF06F0000E076E000E066E8BEC07F09E
:100C820035EF06F00E500C6E0D6A0D50000AD8B406
:100C92004DEF06F03BEF06F00C50300AD8B4F6EFF9
:100CA20005F0010AD8B4FCEF05F0030AD8B402EF4C
:100CB20006F0010AD8B408EF06F0070AD8B40EEF1E
:100CC20006F0010AD8B414EF06F0030AD8B41AEFFA
:100CD20006F0010AD8B420EF06F00F0AD8B426EFC6
:100CE20006F0010AD8B42CEF06F07A0AD8B432EF33
:100CF20006F03BEF06F00FC00AF010C00BF0120036
:100D0200000E066E04BE8AEF06F088EF06F090EF42
:100D120006F0036C041ED8B0042A010E066E02BE51
:100D220097EF06F095EF06F09DEF06F0016C021EBC
:100D3200D8B0022A010E061A000E086E000E076EC7
:100D420003500410D8B4A8EF06F0AAEF06F0D2EFD1
:100D520006F0010E056EB2EF06F0D89003360436A7
:100D6200052A04AEB7EF06F0B9EF06F0AEEF06F0D3
:100D7200D890073608360350015C04500258D8A0B8
:100D8200C5EF06F0C7EF06F0CCEF06F00350015EA8
:100D92000450025A0780D89004320332052EB9EF6C
:100DA20006F00650D8B4D8EF06F0DAEF06F0DEEF20
:100DB20006F0076C081ED8B0082A07C001F008C068
:100DC20002F012000A6E430E0A18D8A4EBEF06F0E6
:100DD200EDEF06F0F3EF06F0010E2BEC08F0650ED6
:100DE20020EF07F02B0E0A18D8B4FAEF06F0FCEF4A
:100DF20006F01FEF07F02D0E0A18D8B403EF07F024
:100E020005EF07F01FEF07F02A0E0A18D8B40CEF0F
:100E120007F00EEF07F01FEF07F02F0E0A18D8B4F5
:100E220015EF07F017EF07F01FEF07F0000E076E40
:100E3200010E066E8BEC07F0F0EF06F00A5012007E
:100E4200000E0C6E0ABE2AEF07F028EF07F034EF0F
:100E520007F01D0E046E080E056EDDEC07F0096C3E
:100E62000A1ED8B00A2A09C001F00AC002F0000E18
:100E7200046E0A0E036E81EC06F001500C6E0C50EB
:100E8200D8B446EF07F048EF07F04CEF07F00C50EC
:100E9200300FF8EC07F00C50F60DF35009240B6EEE
:100EA2000B50300FF8EC07F01200000E956E8B9489
:100EB2008B928B90000E8B6E949094949492380E39
:100EC2002BEC08F0030E036E8A0E026E560EE82E0D
:100ED200FED7022EFCD7032EFAD70E0E2BEC08F00B
:100EE200030E036E8A0E026E560EE82EFED7022EF7
:100EF200FCD7032EFAD7010E2BEC08F0030E036E7B
:100F02008A0E026E560EE82EFED7022EFCD7032E54
:100F1200FAD71200010E2BEC08F0A8EF07F0110E21
:100F2200046E080E056EDDEC07F0BEEF07F0110E41
:100F3200046E080E056EDDEC07F0BEEF07F0110E31
:100F4200046E080E056EDDEC07F0BEEF07F006C07A
:100F520008F007C009F00950000AD8B4B3EF07F04F
:100F6200A0EF07F00850000AD8B490EF07F0010A8A
:100F7200D8B498EF07F0A0EF07F01200780E1A6EBF
:100F8200D2EF07F011EC04F01A6E020E046E040E9A
:100F9200036EBA0EE82EFED7032EFCD7042EFAD724
:100FA20000D0780E1A18D8B4D9EF07F0DBEF07F0AB
:100FB200C3EF07F01A501200E9EF07F004C0F6FF82
:100FC20005C0F7FF0800F550F8EC07F0044A052ABF
:100FD20004C0F6FF05C0F7FF0800F5500009D8A4C9
:100FE200F5EF07F0F7EF07F0DFEF07F01200036EFF
:100FF2008B848B928B8003C08CFF00F000F08B906F
:10100200030E026E8A0E016E560EE82EFED7012ED8
:10101200FCD7022EFAD7120001500302F3CF05F0DB
:10102200F4CF06F001500402F350062602500302E8
:10103200F350062605C001F006C002F012001A6A3B
:10104200196A186A176A166A156A000EF86E0001A4
:1010520019EF05F0016E8B948B928B8000F001C02A
:101062008CFF00F08B901200000E0F015C6F0F0ED0
:0A107200936E0F0E856EF19E1200C2
:020000040020DA
:08000000FFFFFFFFFFFFFFFF00
:020000040030CA
:0E00000000285F3CFFD385FF0FC00FE00F40CC
:00000001FF
